:100000001CC036C035C034C033C032C031C030C06F
:100010002FC02EC02DC02CC02BC02AC029C028C084
:1000200027C026C025C024C023C022C021C020C0B4
:100030001FC01EC032383835300011241FBECFEF2C
:10004000D4E0DEBFCDBF11E0A0E0B1E0E8EBFFE01F
:1000500002C005900D92A639B107D9F711E0A6E9C3
:10006000B1E001C01D92AE39B107E1F75DD3A2C77F
:10007000C7CF282F22952F709AE0299F9001112435
:100080008F70820F0895482F6AE0B5D4282F30E092
:1000900084E0220F331F8A95E1F7842FACD4892F97
:1000A000822B0895CF92DF92EF92FF920F931F93CE
:1000B000DF93CF93CDB7DEB760970FB6F894DEBF6E
:1000C0000FBECDBF182F062F8DB79EB740970FB626
:1000D000F8949EBF0FBE8DBFEDB7FEB731967E017F
:1000E0000894E11CF11CADB7BEB71296FC92EE92DB
:1000F000119790E1C92ED12CD382C28280E091E089
:100100009583848380919A018683178280919901D7
:1001100080871186809198018287138680919C0147
:1001200084871586809197018687178670D48DB74E
:100130009EB740960FB6F8949EBF0FBE8DBF6ED38C
:10014000C701C2D31123A1F0ADB7BEB718970FB640
:10015000F894BEBF0FBEADBFEDB7FEB73196129695
:10016000FC92EE921197D382C2828AE191E013C091
:10017000ADB7BEB718970FB6F894BEBF0FBEADBFF0
:10018000EDB7FEB731961296FC92EE921197D3829C
:10019000C28285E291E0958384830683178237D4F7
:1001A0008DB79EB708960FB6F8949EBF0FBE8DBF51
:1001B00080E062E074D3CE01019686D360960FB6DC
:1001C000F894DEBF0FBECDBFCF91DF911F910F918D
:1001D000FF90EF90DF90CF9008950F931F93082F1B
:1001E000162F80EAD4D3812FD5D3802FD3D3FBD33E
:1001F00080E29EE40197F1F71F910F9108950F930C
:100200001F93182F062F80EDC2D3882329F4812F46
:10021000C1D3802FBFD3E7D31F910F9108951F93B0
:10022000182F80EAB4D3812FB5D380EAC5D3D1D3B8
:10023000182FD9D3812F1F9108951F93182F80ED68
:10024000A6D3882311F010E007C0812FA3D380ED3F
:10025000B3D3BFD3182FC7D3812F1F9108951F93F6
:1002600080E0EBDF182F80ED92D3882311F081E03E
:1002700027C080E08FD317FF05C08091980103DF6E
:10028000806804C080919801FEDE8F7783D38091CF
:100290009901F9DE7FD380919A01F5DE7BD38091BD
:1002A0009D0178D380919C01EEDE74D380919701FB
:1002B000EADE70D380919B01E6DE6CD394D380E0BC
:1002C0001F910895CCDF88E080939401A7D28FE23C
:1002D00091E0FAD228EC30E007C088EE93E0F90113
:1002E0003197F1F70197D9F7189BF7CF199BF5CF05
:1002F00080E197E228EC30E0F9013197F1F70197BE
:10030000D9F7089588E099DF8823E1F487D28CE358
:1003100091E0DAD228EC30E007C088EE93E0F901F2
:100320003197F1F70197D9F7189BF7CF199BF5CFC4
:1003300080E197E228EC30E0F9013197F1F701977D
:10034000D9F708956BD284E491E0BED228EC30E076
:1003500007C088EE93E0F9013197F1F70197D9F7DB
:10036000189BF7CF199BF5CF80E197E228EC30E09E
:10037000F9013197F1F70197D9F780E05EDF60E08E
:1003800091DE189983B14AD28EE491E09DD280E04B
:1003900062E085D289E591E097D280E49CE90197FB
:1003A000F1F7189BFECF199BFCCF80E49CE90197E5
:1003B000F1F704C0189902C085DF08951999FACFA2
:1003C00008951F93182F80E038DF112319F0682F4C
:1003D0006F7702C0682F606880E011DF1F91089579
:1003E0001F9380EDD4D2882311F081E056C080E0C5
:1003F000D1D280EDE1D2E3D2282F2F7722952F7032
:100400001AE0219F900111248F70820F8093980130
:10041000D6D2282F22952F70219F900111248F7002
:10042000820F80939901CBD2282F2F7322952F70A2
:10043000219F900111248F70820F80939A01BFD267
:10044000282F22952F70219F900111248F70820FE9
:1004500080939D01B4D2282F22952F70219F900167
:1004600011248F70820F80939C01A9D2282F22958E
:100470002F70219F900111248F70820F809397011C
:10048000A8D2282F22952F70219F900111248F70C0
:10049000820F80939B01A7D280E01F9108950F9354
:1004A0001F93DF93CF93CDB7DEB760970FB6F89465
:1004B000DEBF0FBECDBF809194018F3309F47DC0A4
:1004C000BCDE813009F479C08BDF80919A016091A4
:1004D000960183DE609196016F5F60939601809133
:1004E00099017BDE809196018F5F809396018DB795
:1004F0009EB70E970FB6F8949EBF0FBE8DBFEDB797
:10050000FEB731968E010F5F1F4FADB7BEB7129683
:100510001C930E93119780E190E09383828384E68D
:1005200091E09583848380919A01868317828091DC
:100530009901808711868091980182871386809126
:100540009B018487158663D28DB79EB70E960FB632
:10055000F8949EBF0FBE8DBF61D1C801B5D180E0B8
:1005600062E09DD18BE791E0AFD1809194018F5FE4
:100570008093940180E06FE342DE28EC30E007C016
:1005800088EE93E0F9013197F1F70197D9F7189BBD
:10059000F7CF199BF5CF80E197E228EC30E0F90125
:1005A0003197F1F70197D9F780919C018F5F809384
:1005B0009C0187E080939A0152DE60960FB6F89412
:1005C000DEBF0FBECDBFCF91DF911F910F91089578
:1005D0000F931F93DF93CF93CDB7DEB760970FB61E
:1005E000F894DEBF0FBECDBF809194018F3309F424
:1005F00090C023DE813009F48CC0F2DE80919C0132
:1006000060919601EADD609196016F5F60939601BB
:1006100080919701E2DD609196016F5F6093960192
:1006200080919A01DADD609196016F5F6093960187
:1006300080919901D2DD809196018F5F8093960120
:100640008DB79EB70E970FB6F8949EBF0FBE8DBFA5
:10065000EDB7FEB731968E010F5F1F4FADB7BEB736
:1006600012961C930E93119780E190E093838283FE
:1006700084E691E09583848380919A018683178232
:1006800080919901808711868091980182871386D5
:1006900080919B0184871586BAD18DB79EB70E963F
:1006A0000FB6F8949EBF0FBE8DBFB8D0C8010CD155
:1006B00080E062E0F4D087E891E006D181E06FE36A
:1006C0009EDD28EC30E007C088EE93E0F901319719
:1006D000F1F70197D9F7189BF7CF199BF5CF88EE63
:1006E00093E028EC30E0F9013197F1F70197D9F761
:1006F00090919A01892F885F80939A01893140F007
:1007000080919C018F5F80939C01905190939A01FE
:10071000A6DD60960FB6F894DEBF0FBECDBFCF91B9
:10072000DF911F910F9108951F93CF93DF93259A27
:100730003DD07BD081E06AE018D181E042DE18999B
:1007400002C0199BBFDD28EE33E010E2C8ECD0E018
:1007500005C0CE010197F1F7215030402115310538
:10076000C1F785B1812785B93BDE8091940165DDB4
:100770006091940197DC189908C086E292E0FE012E
:100780003197F1F70197D9F723DF199908C086E26D
:1007900092E0FE013197F1F70197D9F780DE1899C1
:1007A00002C0199BAFDD28EE33E0D3CF209821980B
:1007B000289A299A3898409880E480937C00EAE748
:1007C000F0E086E080838081806E808308959BB115
:1007D0009F709BB99BB1807F892B8BB95B9A85E316
:1007E0008A95F1F75B9808951F93182F5A9AEFDFB7
:1007F000812F8295807FEBDF8AE78A95F1F71F9141
:1008000008951F93182F5A98E2DF812F8295807FD9
:10081000DEDF80E78A95F1F71F91089581E0F1DF2F
:1008200080EA9FE00197F1F708950F931F938AB133
:100830008C6F8AB98BB183708BB980E395E7019790
:10084000F1F780E3C4DF00E117E2C8010197F1F797
:100850005B9A25E3822F8A95F1F75B9880ED97E00C
:10086000FC013197F1F75B9A2A95F1F75B980197B4
:10087000F1F780E2ACDFC8010197F1F788E2C1DF50
:100880008CE0BFDF86E0BDDFC9DF1F910F910895C7
:1008900082E0B7DF80EA9FE00197F1F708956230C8
:1008A00061F0633018F4613071F405C0633039F0E1
:1008B000643049F406C0805805C0805403C0805796
:1008C00001C080539EDF0895CF93DF93EC0102C0F7
:1008D00021968ADF88818823D9F7DF91CF91089507
:1008E0000F931F93CF93DF938B01880F880F880F8F
:1008F000806487DFC0E0D0E0F801EC0FFD1F80814D
:1009000073DF2196C830D105B9F7DF91CF911F91E0
:100910000F910895982F84EA8093BC008091BC00C9
:1009200087FFFCCF8091B900887F883039F08091B3
:10093000B900887F803111F081E008959093BB0069
:1009400084E88093BC008091BC0087FFFCCF80913D
:10095000B900887F883139F08091B900887F803470
:1009600011F082E0089580E008956B3008F46BE0A8
:100970003D983C98882319F0459A449A02C04598BE
:1009800044986093B80081E08093B90008958E7F09
:10099000C1DF08958093BB0084E88093BC00809100
:1009A000BC0087FFFCCF8091B90090E0887F88323F
:1009B00009F091E0892F08958160ACDF089584ECFF
:1009C0008093BC008091BC0087FFFCCF8091BB006E
:1009D000089584E88093BC008091BC0087FFFCCF21
:1009E0008091BB00089584E98093BC008091BC0095
:1009F00084FDFCCF0895991B79E004C0991F9617D8
:100A000008F0961B881F7A95C9F780950895AEE087
:100A1000B0E0ECE0F5E0A5C20D891E898F89988DC4
:100A200097FF02C080E090E801979E838D831A8330
:100A3000098386E08C839E01255E3F4FCE0101969F
:100A4000698D7A8DA90111D04D815E8157FD0AC053
:100A50002F813885421753070CF49A01020F131F98
:100A6000F80110822E96E4E098C2ABE0B0E0EAE331
:100A7000F5E069C23C012B015A01FC011782168284
:100A8000838181FD03C06FEF7FEFB9C19AE0892EAA
:100A90001E010894211C311CF3012381F20123FD66
:100AA000859123FF81912F01882309F4A5C1853207
:100AB00039F423FD859123FF81912F01853221F4A3
:100AC00090E0B301B6D1E8CF982FFF24EE2499240B
:100AD000FFE1FF15D0F09B3269F09C3228F4903290
:100AE00059F0933291F40EC09D3249F0903369F47D
:100AF00041E024C052E0F52A84E0F82A28C098E0BA
:100B0000F92A25C0E0E1FE2A22C0F7FC29C0892F7E
:100B100080538A3070F4F6FE05C0989C902C112406
:100B2000980E15C0E89CE02C1124E80EF0E2FF2A94
:100B30000EC09E3229F4F6FC5FC140E4F42A07C0DF
:100B40009C3619F450E8F52A02C0983649F4F201AF
:100B500023FD959123FF91912F01992309F0B8CF9F
:100B6000892F8554833018F08052833038F444E064
:100B700050E0A40EB51E5FE359830FC0933631F0E9
:100B8000933779F0933509F052C01FC0F501808189
:100B9000898342E050E0A40EB51E610101E010E03F
:100BA00011C0F501C080D180F6FC03C06FEF7FEF6C
:100BB00002C0692D70E042E050E0A40EB51EC601EF
:100BC0002DD18C015FE7F52213C0F501C080D180E3
:100BD000F6FC03C06FEF7FEF02C0692D70E042E0CA
:100BE00050E0A40EB51EC6010ED18C0150E8F52AC6
:100BF000F3FE06C018C080E290E0B3011AD1EA9477
:100C00008E2D90E008171907B0F30DC0F601F7FC20
:100C10008591F7FE81916F0190E0B3010AD1E11057
:100C2000EA94015010400115110581F7E2C0943695
:100C300011F0993661F5F7FE08C0F5012081318188
:100C40004281538184E090E00AC0F5018081918166
:100C50009C01442737FD4095542F82E090E0A80E78
:100C6000B91E9FE6F92257FF09C05095409530956F
:100C700021953F4F4F4F5F4FE0E8FE2ACA01B9016F
:100C8000A1012AE030E001D1D82ED2183FC095371B
:100C900029F41F2D1F7E2AE030E01DC01F2D197F73
:100CA0009F3661F0903720F4983509F0A5C00FC049
:100CB000903739F0983709F09FC004C028E030E041
:100CC0000AC0106114FD146020E130E004C014FD7E
:100CD000166020E132E017FF08C0F50160817181E4
:100CE0008281938144E050E008C0F50180819181C8
:100CF000BC0180E090E042E050E0A40EB51EA101EE
:100D0000C4D0D82ED2188FE7F82EF122F6FE0BC0F1
:100D10005EEFF522D91438F4F4FE07C0F2FC05C0EA
:100D20008FEEF82202C01D2D01C0192DF4FE0DC05A
:100D3000FE01ED0DF11D8081803319F499EEF92249
:100D400008C01F5FF2FE05C003C08F2D867809F032
:100D50001F5F0F2DF3FC13C0F0FE0EC01E1510F028
:100D60009D2C0AC09D2C9E0C911A1E2D05C080E260
:100D700090E0B3015ED01F5F1E15C8F304C01E15BE
:100D800010F4E11A01C0EE2404FF0EC080E390E0ED
:100D9000B3014FD002FF1BC001FD03C088E790E004
:100DA0000EC088E590E00BC0802F867881F001FFAF
:100DB00002C08BE201C080E2F7FC8DE290E0B3015B
:100DC00038D005C080E390E0B30133D09A94D914B1
:100DD000C8F3DA94F101ED0DF11D808190E0B301CB
:100DE00028D0DD20B1F705C080E290E0B30121D02A
:100DF000EA94EE20C9F750CEF30166817781CB01EA
:100E00002B96E2E1BCC0FC010590615070400110DE
:100E1000D8F7809590958E0F9F1F0895FC01615023
:100E2000704001900110D8F7809590958E0F9F1F0C
:100E300008950F931F93CF93DF938C01EB018B8168
:100E400081FF1BC082FF0DC02E813F818C819D815F
:100E50002817390764F4E881F9810193F983E8835D
:100E600006C0E885F985802F0995892B31F48E819C
:100E70009F8101969F838E8302C00FEF1FEFC801F1
:100E8000DF91CF911F910F910895FA01AA27283081
:100E900051F1203181F1E8946F936E7F6E5F7F4F47
:100EA0008F4F9F4FAF4FB1E03ED0B4E03CD0670FC3
:100EB000781F891F9A1FA11D680F791F8A1F911D16
:100EC000A11D6A0F711D811D911DA11D20D009F466
:100ED00068943F912AE0269F11243019305D3193A8
:100EE000DEF6CF010895462F4770405D4193B3E091
:100EF0000FD0C9F7F6CF462F4F70405D4A3318F038
:100F0000495D31FD4052419302D0A9F7EACFB4E0E8
:100F1000A6959795879577956795BA95C9F70097A0
:100F20006105710508959B01AC010A2E0694579541
:100F3000479537952795BA95C9F7620F731F841F98
:100F4000951FA01D08952F923F924F925F926F922E
:100F50007F928F929F92AF92BF92CF92DF92EF9249
:100F6000FF920F931F93CF93DF93CDB7DEB7CA1BCA
:100F7000DB0B0FB6F894DEBF0FBECDBF09942A88F5
:100F8000398848885F846E847D848C849B84AA849D
:100F9000B984C884DF80EE80FD800C811B81AA812A
:100FA000B981CE0FD11D0FB6F894DEBF0FBECDBFF5
:080FB000ED010895F894FFCF54
:100FB800253032643A253032643A253032642020B4
:100FC800253032642E253032640070726573656E88
:100FD8007420256400616273656E74202564006D59
:100FE800656D6F7279207265736574006E6F206429
:100FF800617461007265616420646174610059659F
:101008007320205265736574004E6F202020646140
:1010180074613F00253032643A253032643A253015
:1010280032642020323025303264006C6561766588
:1010380020736176656400617272697665207361F8
:061048007665640008005B
:00000001FF
